{
  "contractName": "MedicalRecord",
  "abi": [
    {
      "inputs": [
        {
          "internalType": "string",
          "name": "fileHash",
          "type": "string"
        },
        {
          "internalType": "address",
          "name": "wallet",
          "type": "address"
        }
      ],
      "name": "storeFileHash",
      "outputs": [],
      "stateMutability": "nonpayable",
      "type": "function"
    },
    {
      "inputs": [
        {
          "internalType": "address",
          "name": "wallet_address",
          "type": "address"
        }
      ],
      "name": "getRecords",
      "outputs": [
        {
          "internalType": "string[]",
          "name": "",
          "type": "string[]"
        }
      ],
      "stateMutability": "view",
      "type": "function",
      "constant": true
    },
    {
      "inputs": [
        {
          "internalType": "string",
          "name": "fileHash",
          "type": "string"
        }
      ],
      "name": "getWalletAddress",
      "outputs": [
        {
          "internalType": "address",
          "name": "",
          "type": "address"
        }
      ],
      "stateMutability": "view",
      "type": "function",
      "constant": true
    }
  ],
  "bytecode": "0x608060405234801561001057600080fd5b50610a7c806100206000396000f3fe608060405234801561001057600080fd5b50600436106100415760003560e01c806308f20630146100465780636fc906ce14610076578063a0076e8414610092575b600080fd5b610060600480360381019061005b919061044e565b6100c2565b60405161006d91906104d8565b60405180910390f35b610090600480360381019061008b919061051f565b610109565b005b6100ac60048036038101906100a7919061057b565b6101dc565b6040516100b991906106e9565b60405180910390f35b600080826040516100d39190610747565b908152602001604051809103902060009054906101000a900473ffffffffffffffffffffffffffffffffffffffff169050919050565b8060008360405161011a9190610747565b908152602001604051809103902060006101000a81548173ffffffffffffffffffffffffffffffffffffffff021916908373ffffffffffffffffffffffffffffffffffffffff160217905550600160008273ffffffffffffffffffffffffffffffffffffffff1673ffffffffffffffffffffffffffffffffffffffff168152602001908152602001600020829080600181540180825580915050600190039060005260206000200160009091909190915090816101d79190610974565b505050565b6060600160008373ffffffffffffffffffffffffffffffffffffffff1673ffffffffffffffffffffffffffffffffffffffff168152602001908152602001600020805480602002602001604051908101604052809291908181526020016000905b828210156102e957838290600052602060002001805461025c9061078d565b80601f01602080910402602001604051908101604052809291908181526020018280546102889061078d565b80156102d55780601f106102aa576101008083540402835291602001916102d5565b820191906000526020600020905b8154815290600101906020018083116102b857829003601f168201915b50505050508152602001906001019061023d565b505050509050919050565b6000604051905090565b600080fd5b600080fd5b600080fd5b600080fd5b6000601f19601f8301169050919050565b7f4e487b7100000000000000000000000000000000000000000000000000000000600052604160045260246000fd5b61035b82610312565b810181811067ffffffffffffffff8211171561037a57610379610323565b5b80604052505050565b600061038d6102f4565b90506103998282610352565b919050565b600067ffffffffffffffff8211156103b9576103b8610323565b5b6103c282610312565b9050602081019050919050565b82818337600083830152505050565b60006103f16103ec8461039e565b610383565b90508281526020810184848401111561040d5761040c61030d565b5b6104188482856103cf565b509392505050565b600082601f83011261043557610434610308565b5b81356104458482602086016103de565b91505092915050565b600060208284031215610464576104636102fe565b5b600082013567ffffffffffffffff81111561048257610481610303565b5b61048e84828501610420565b91505092915050565b600073ffffffffffffffffffffffffffffffffffffffff82169050919050565b60006104c282610497565b9050919050565b6104d2816104b7565b82525050565b60006020820190506104ed60008301846104c9565b92915050565b6104fc816104b7565b811461050757600080fd5b50565b600081359050610519816104f3565b92915050565b60008060408385031215610536576105356102fe565b5b600083013567ffffffffffffffff81111561055457610553610303565b5b61056085828601610420565b92505060206105718582860161050a565b9150509250929050565b600060208284031215610591576105906102fe565b5b600061059f8482850161050a565b91505092915050565b600081519050919050565b600082825260208201905092915050565b6000819050602082019050919050565b600081519050919050565b600082825260208201905092915050565b60005b8381101561060e5780820151818401526020810190506105f3565b60008484015250505050565b6000610625826105d4565b61062f81856105df565b935061063f8185602086016105f0565b61064881610312565b840191505092915050565b600061065f838361061a565b905092915050565b6000602082019050919050565b600061067f826105a8565b61068981856105b3565b93508360208202850161069b856105c4565b8060005b858110156106d757848403895281516106b88582610653565b94506106c383610667565b925060208a0199505060018101905061069f565b50829750879550505050505092915050565b600060208201905081810360008301526107038184610674565b905092915050565b600081905092915050565b6000610721826105d4565b61072b818561070b565b935061073b8185602086016105f0565b80840191505092915050565b60006107538284610716565b915081905092915050565b7f4e487b7100000000000000000000000000000000000000000000000000000000600052602260045260246000fd5b600060028204905060018216806107a557607f821691505b6020821081036107b8576107b761075e565b5b50919050565b60008190508160005260206000209050919050565b60006020601f8301049050919050565b600082821b905092915050565b6000600883026108207fffffffffffffffffffffffffffffffffffffffffffffffffffffffffffffffff826107e3565b61082a86836107e3565b95508019841693508086168417925050509392505050565b6000819050919050565b6000819050919050565b600061087161086c61086784610842565b61084c565b610842565b9050919050565b6000819050919050565b61088b83610856565b61089f61089782610878565b8484546107f0565b825550505050565b600090565b6108b46108a7565b6108bf818484610882565b505050565b5b818110156108e3576108d86000826108ac565b6001810190506108c5565b5050565b601f821115610928576108f9816107be565b610902846107d3565b81016020851015610911578190505b61092561091d856107d3565b8301826108c4565b50505b505050565b600082821c905092915050565b600061094b6000198460080261092d565b1980831691505092915050565b6000610964838361093a565b9150826002028217905092915050565b61097d826105d4565b67ffffffffffffffff81111561099657610995610323565b5b6109a0825461078d565b6109ab8282856108e7565b600060209050601f8311600181146109de57600084156109cc578287015190505b6109d68582610958565b865550610a3e565b601f1984166109ec866107be565b60005b82811015610a14578489015182556001820191506020850194506020810190506109ef565b86831015610a315784890151610a2d601f89168261093a565b8355505b6001600288020188555050505b50505050505056fea264697066735822122045ce4053409a05ead8b6b68d78d08339ac504326b205500f33a0db4d13c489a164736f6c63430008130033",
  "immutableReferences": {},
  "source": "// SPDX-License-Identifier: MIT \r\npragma solidity ^0.8.0;\r\n\r\ncontract MedicalRecord {\r\n     mapping(string => address)  single_fileHash;\r\n mapping(address => string[]) fileHashes;  // Store file hashes for each address\r\n    function storeFileHash(string memory fileHash, address wallet) public {\r\n        // Store the wallet address associated with the file hash\r\n        single_fileHash[fileHash]= wallet;\r\n       fileHashes[wallet].push(fileHash);\r\n    }\r\n\r\n    // function updateFileHashes(string[] memory newHashes, address wallet) public {\r\n    //     fileHashes[wallet] = newHashes;\r\n    // }\r\n\r\n     // Get method\r\n    function getRecords(address wallet_address) public view returns (string[] memory) {\r\n        return fileHashes[wallet_address];\r\n    }\r\n    function getWalletAddress(string memory fileHash) public view returns (address) {\r\n        return single_fileHash[fileHash];\r\n    }\r\n}\r\n",
  "sourcePath": "C:\\Users\\Yousuf\\Desktop\\etherium_tutorial\\fyp_1\\backend\\blockchain\\contracts\\MedicalRecords.sol",
  "compiler": {
    "name": "solc",
    "version": "0.8.19+commit.7dd6d404.Emscripten.clang"
  },
  "schemaVersion": "3.4.16",
  "updatedAt": "2024-05-15T15:59:18.083Z",
  "networkType": "ethereum",
  "devdoc": {
    "kind": "dev",
    "methods": {},
    "version": 1
  },
  "userdoc": {
    "kind": "user",
    "methods": {},
    "version": 1
  }
}